:100000000C9434000C943E000C943E000C943E0082
:100010000C943E000C943E000C943E000C943E0068
:100020000C943E000C943E000C943E000C943E0058
:100030000C943E000C943E000C943E000C943E0048
:100040000C943E000C943E000C943E000C943E0038
:100050000C943E000C943E000C943E000C943E0028
:100060000C943E000C943E0011241FBECFEFD8E04C
:10007000DEBFCDBF0E9429010C941C150C9400001A
:10008000CF93DF93CDB7DEB728970FB6F894DEBFD6
:100090000FBECDBF6D837E838F83988719821A82AE
:1000A0001B821C820CC0000089819A81AB81BC81BB
:1000B0000196A11DB11D89839A83AB83BC832981DD
:1000C0003A814B815C818D819E81AF81B8852817F3
:1000D00039074A075B073CF328960FB6F894DEBF52
:1000E0000FBECDBFDF91CF910895CF93DF93CDB7F2
:1000F000DEB72E970FB6F894DEBF0FBECDBF988740
:100100008F837A8769878F81988501969C0140E06B
:1001100050E080E291EAA7E0B0E0BC01CD010E948E
:10012000CC14DA01C9019C838B834F8158852985C2
:100130003A85429FC001439F900D529F900D11241C
:100140009695879596958795969587959C01A5ECAC
:10015000B0E20E94EB14929582958F7089279F7070
:1001600089279E838D831A8219822BC085E290E0B5
:1001700025E230E0F90120812860FC0120838B8199
:100180009C81AA2797FDA095BA2FBC01CD010E94A2
:10019000400085E290E025E230E0F9012081277FF0
:1001A000FC0120838B819C81AA2797FDA095BA2F03
:1001B000BC01CD010E94400089819A8101969A83F9
:1001C000898329813A818D819E818217930774F6F4
:1001D0002E960FB6F894DEBF0FBECDBFDF91CF9144
:1001E0000895CF93DF93CDB7DEB78CE790E020E49E
:1001F000FC0120838AE790E02AE730E0F9012081C2
:10020000276EFC012083DF91CF910895CF93DF9378
:10021000CDB7DEB70E94F10088E790E0FC01808155
:100220009181DF91CF910895CF93DF93CDB7DEB762
:100230008CE790E02CE730E0F90120812164FC019B
:10024000208388E790E0FC0180819181DF91CF914C
:1002500008950F931F93CF93DF93CDB7DEB7CE5E94
:10026000D4400FB6F894DEBF0FBECDBF84E290E05D
:1002700028EFFC0120830E94F1002CEE34E0CE0137
:100280000396FC01A901119241505040E1F780E82A
:1002900090E09C838B8381E890E09E838D8383E84C
:1002A00090E098878F8384E890E09A87898785E833
:1002B00090E09C878B8786E890E09E878D8788E812
:1002C00090E0988B8F8789E890E09A8B898B8AE8F9
:1002D00090E09C8B8B8B8BE890E09E8B8D8B8DE8D8
:1002E00090E0988F8F8B8EE890E09A8F898F8FE8BF
:1002F00090E09C8F8B8F80E990E09E8F8D8F82E9BC
:1003000090E098A38F8F83E990E09AA389A384E972
:1003100090E09CA38BA385E990E09EA38DA387E941
:1003200090E098A78FA388E990E09AA789A789E928
:1003300090E09CA78BA78AE990E09EA78DA78CE907
:1003400090E098AB8FA78DE990E09AAB89AB8EE9EE
:1003500090E09CAB8BAB8FE990E09EAB8DAB81EADC
:1003600090E098AF8FAB82EA90E09AAF89AF83EAD2
:1003700090E09CAF8BAF84EA90E09EAF8DAF26EA11
:1003800030E0CE01CF96FC0131832083CE018F5B1C
:100390009F4F27EA30E0FC0131832083CE018D5B43
:1003A0009F4F28EA30E0FC0131832083CE018B5B34
:1003B0009F4F29EA30E0FC0131832083CE01895B25
:1003C0009F4F2AEA30E0FC0131832083CE01875B16
:1003D0009F4F2CEA30E0FC0131832083CE01855B06
:1003E0009F4F2DEA30E0FC0131832083CE01835BF7
:1003F0009F4F2EEA30E0FC0131832083CE01815BE8
:100400009F4F2FEA30E0FC0131832083CE018F5AC9
:100410009F4F20EB30E0FC0131832083CE018D5AC9
:100420009F4F21EB30E0FC0131832083CE018B5ABA
:100430009F4F23EB30E0FC0131832083CE01895AAA
:100440009F4F24EB30E0FC0131832083CE01875A9B
:100450009F4F25EB30E0FC0131832083CE01855A8C
:100460009F4F26EB30E0FC0131832083CE01835A7D
:100470009F4F27EB30E0FC0131832083CE01815A6E
:100480009F4F28EB30E0FC0131832083CE018F5950
:100490009F4F2AEB30E0FC0131832083CE018D5940
:1004A0009F4F2BEB30E0FC0131832083CE018B5931
:1004B0009F4F2CEB30E0FC0131832083CE01895922
:1004C0009F4F2DEB30E0FC0131832083CE01875913
:1004D0009F4F2EEB30E0FC0131832083CE01855904
:1004E0009F4F2FEB30E0FC0131832083CE018359F5
:1004F0009F4F20EC30E0FC0131832083CE018159F5
:100500009F4F21EC30E0FC0131832083CE018F58D6
:100510009F4F22EC30E0FC0131832083CE018D58C7
:100520009F4F23EC30E0FC0131832083CE018B58B8
:100530009F4F25EC30E0FC0131832083CE018958A8
:100540009F4F26EC30E0FC0131832083CE01875899
:100550009F4F27EC30E0FC0131832083CE0185588A
:100560009F4F28EC30E0FC0131832083CE0183587B
:100570009F4F29EC30E0FC0131832083CE0181586C
:100580009F4F2AEC30E0FC0131832083CE018F574E
:100590009F4F2BEC30E0FC0131832083CE018D573F
:1005A0009F4F2CEC30E0FC0131832083CE018B5730
:1005B0009F4F2DEC30E0FC0131832083CE01895721
:1005C0009F4F2EEC30E0FC0131832083CE01875712
:1005D0009F4F2FEC30E0FC0131832083CE01855703
:1005E0009F4F20ED30E0FC0131832083CE01835703
:1005F0009F4F21ED30E0FC0131832083CE018157F4
:100600009F4F22ED30E0FC0131832083CE018F56D5
:100610009F4F23ED30E0FC0131832083CE018D56C6
:100620009F4F24ED30E0FC0131832083CE018B56B7
:100630009F4F25ED30E0FC0131832083CE018956A8
:100640009F4F26ED30E0FC0131832083CE01875699
:100650009F4F27ED30E0FC0131832083CE0185568A
:100660009F4F27ED30E0FC0131832083CE0183567C
:100670009F4F28ED30E0FC0131832083CE0181566D
:100680009F4F29ED30E0FC0131832083CE018F554F
:100690009F4F2AED30E0FC0131832083CE018D5540
:1006A0009F4F2BED30E0FC0131832083CE018B5531
:1006B0009F4F2CED30E0FC0131832083CE01895522
:1006C0009F4F2DED30E0FC0131832083CE01875513
:1006D0009F4F2EED30E0FC0131832083CE01855504
:1006E0009F4F2FED30E0FC0131832083CE018355F5
:1006F0009F4F2FED30E0FC0131832083CE018155E7
:100700009F4F20EE30E0FC0131832083CE018F54D7
:100710009F4F21EE30E0FC0131832083CE018D54C8
:100720009F4F22EE30E0FC0131832083CE018B54B9
:100730009F4F23EE30E0FC0131832083CE018954AA
:100740009F4F23EE30E0FC0131832083CE0187549C
:100750009F4F24EE30E0FC0131832083CE0185548D
:100760009F4F25EE30E0FC0131832083CE0183547E
:100770009F4F26EE30E0FC0131832083CE0181546F
:100780009F4F27EE30E0FC0131832083CE018F5351
:100790009F4F27EE30E0FC0131832083CE018D5343
:1007A0009F4F28EE30E0FC0131832083CE018B5334
:1007B0009F4F29EE30E0FC0131832083CE01895325
:1007C0009F4F29EE30E0FC0131832083CE01875317
:1007D0009F4F2AEE30E0FC0131832083CE01855308
:1007E0009F4F2BEE30E0FC0131832083CE018353F9
:1007F0009F4F2CEE30E0FC0131832083CE018153EA
:100800009F4F2CEE30E0FC0131832083CE018F52CC
:100810009F4F2DEE30E0FC0131832083CE018D52BD
:100820009F4F2EEE30E0FC0131832083CE018B52AE
:100830009F4F2EEE30E0FC0131832083CE018952A0
:100840009F4F2FEE30E0FC0131832083CE01875291
:100850009F4F2FEE30E0FC0131832083CE01855283
:100860009F4F20EF30E0FC0131832083CE01835283
:100870009F4F21EF30E0FC0131832083CE01815274
:100880009F4F21EF30E0FC0131832083CE018F5157
:100890009F4F22EF30E0FC0131832083CE018D5148
:1008A0009F4F22EF30E0FC0131832083CE018B513A
:1008B0009F4F23EF30E0FC0131832083CE0189512B
:1008C0009F4F23EF30E0FC0131832083CE0187511D
:1008D0009F4F24EF30E0FC0131832083CE0185510E
:1008E0009F4F24EF30E0FC0131832083CE01835100
:1008F0009F4F25EF30E0FC0131832083CE018151F1
:100900009F4F25EF30E0FC0131832083CE018F50D3
:100910009F4F26EF30E0FC0131832083CE018D50C4
:100920009F4F26EF30E0FC0131832083CE018B50B6
:100930009F4F27EF30E0FC0131832083CE018950A7
:100940009F4F27EF30E0FC0131832083CE01875099
:100950009F4F28EF30E0FC0131832083CE0185508A
:100960009F4F28EF30E0FC0131832083CE0183507C
:100970009F4F29EF30E0FC0131832083CE0181506D
:100980009F4F29EF30E0FC0131832083CE018F5F40
:100990009E4F29EF30E0FC0131832083CE018D5F33
:1009A0009E4F2AEF30E0FC0131832083CE018B5F24
:1009B0009E4F2AEF30E0FC0131832083CE01895F16
:1009C0009E4F2AEF30E0FC0131832083CE01875F08
:1009D0009E4F2BEF30E0FC0131832083CE01855FF9
:1009E0009E4F2BEF30E0FC0131832083CE01835FEB
:1009F0009E4F2BEF30E0FC0131832083CE01815FDD
:100A00009E4F2CEF30E0FC0131832083CE018F5EBE
:100A10009E4F2CEF30E0FC0131832083CE018D5EB0
:100A20009E4F2CEF30E0FC0131832083CE018B5EA2
:100A30009E4F2CEF30E0FC0131832083CE01895E94
:100A40009E4F2DEF30E0FC0131832083CE01875E85
:100A50009E4F2DEF30E0FC0131832083CE01855E77
:100A60009E4F2DEF30E0FC0131832083CE01835E69
:100A70009E4F2DEF30E0FC0131832083CE01815E5B
:100A80009E4F2EEF30E0FC0131832083CE018F5D3D
:100A90009E4F2EEF30E0FC0131832083CE018D5D2F
:100AA0009E4F2EEF30E0FC0131832083CE018B5D21
:100AB0009E4F2EEF30E0FC0131832083CE01895D13
:100AC0009E4F2EEF30E0FC0131832083CE01875D05
:100AD0009E4F2EEF30E0FC0131832083CE01855DF7
:100AE0009E4F2EEF30E0FC0131832083CE01835DE9
:100AF0009E4F2FEF30E0FC0131832083CE01815DDA
:100B00009E4F2FEF30E0FC0131832083CE018F5CBC
:100B10009E4F2FEF30E0FC0131832083CE018D5CAE
:100B20009E4F2FEF30E0FC0131832083CE018B5CA0
:100B30009E4F2FEF30E0FC0131832083CE01895C92
:100B40009E4F2FEF30E0FC0131832083CE01875C84
:100B50009E4F2FEF30E0FC0131832083CE01855C76
:100B60009E4F2FEF30E0FC0131832083CE01835C68
:100B70009E4F2FEF30E0FC0131832083CE01815C5A
:100B80009E4F2FEF30E0FC0131832083CE018F5B3D
:100B90009E4F2FEF30E0FC0131832083CE018D5B2F
:100BA0009E4F2FEF30E0FC0131832083CE018B5B21
:100BB0009E4F2FEF30E0FC0131832083CE01895B13
:100BC0009E4F2FEF30E0FC0131832083CE01875B05
:100BD0009E4F2FEF30E0FC0131832083CE01855BF7
:100BE0009E4F2FEF30E0FC0131832083CE01835BE9
:100BF0009E4F2FEF30E0FC0131832083CE01815BDB
:100C00009E4F2EEF30E0FC0131832083CE018F5ABE
:100C10009E4F2EEF30E0FC0131832083CE018D5AB0
:100C20009E4F2EEF30E0FC0131832083CE018B5AA2
:100C30009E4F2EEF30E0FC0131832083CE01895A94
:100C40009E4F2EEF30E0FC0131832083CE01875A86
:100C50009E4F2EEF30E0FC0131832083CE01855A78
:100C60009E4F2EEF30E0FC0131832083CE01835A6A
:100C70009E4F2DEF30E0FC0131832083CE01815A5D
:100C80009E4F2DEF30E0FC0131832083CE018F5940
:100C90009E4F2DEF30E0FC0131832083CE018D5932
:100CA0009E4F2DEF30E0FC0131832083CE018B5924
:100CB0009E4F2CEF30E0FC0131832083CE01895917
:100CC0009E4F2CEF30E0FC0131832083CE01875909
:100CD0009E4F2CEF30E0FC0131832083CE018559FB
:100CE0009E4F2CEF30E0FC0131832083CE018359ED
:100CF0009E4F2BEF30E0FC0131832083CE018159E0
:100D00009E4F2BEF30E0FC0131832083CE018F58C2
:100D10009E4F2BEF30E0FC0131832083CE018D58B4
:100D20009E4F2AEF30E0FC0131832083CE018B58A7
:100D30009E4F2AEF30E0FC0131832083CE01895899
:100D40009E4F2AEF30E0FC0131832083CE0187588B
:100D50009E4F29EF30E0FC0131832083CE0185587E
:100D60009E4F29EF30E0FC0131832083CE01835870
:100D70009E4F29EF30E0FC0131832083CE01815862
:100D80009E4F28EF30E0FC0131832083CE018F5746
:100D90009E4F28EF30E0FC0131832083CE018D5738
:100DA0009E4F27EF30E0FC0131832083CE018B572B
:100DB0009E4F27EF30E0FC0131832083CE0189571D
:100DC0009E4F26EF30E0FC0131832083CE01875710
:100DD0009E4F26EF30E0FC0131832083CE01855702
:100DE0009E4F26EF30E0FC0131832083CE018357F4
:100DF0009E4F25EF30E0FC0131832083CE018157E7
:100E00009E4F25EF30E0FC0131832083CE018F56C9
:100E10009E4F24EF30E0FC0131832083CE018D56BC
:100E20009E4F23EF30E0FC0131832083CE018B56AF
:100E30009E4F23EF30E0FC0131832083CE018956A1
:100E40009E4F22EF30E0FC0131832083CE01875694
:100E50009E4F22EF30E0FC0131832083CE01855686
:100E60009E4F21EF30E0FC0131832083CE01835679
:100E70009E4F21EF30E0FC0131832083CE0181566B
:100E80009E4F20EF30E0FC0131832083CE018F554F
:100E90009E4F20EF30E0FC0131832083CE018D5541
:100EA0009E4F2FEE30E0FC0131832083CE018B5525
:100EB0009E4F2EEE30E0FC0131832083CE01895518
:100EC0009E4F2EEE30E0FC0131832083CE0187550A
:100ED0009E4F2DEE30E0FC0131832083CE018555FD
:100EE0009E4F2CEE30E0FC0131832083CE018355F0
:100EF0009E4F2CEE30E0FC0131832083CE018155E2
:100F00009E4F2BEE30E0FC0131832083CE018F54C5
:100F10009E4F2AEE30E0FC0131832083CE018D54B8
:100F20009E4F2AEE30E0FC0131832083CE018B54AA
:100F30009E4F29EE30E0FC0131832083CE0189549D
:100F40009E4F28EE30E0FC0131832083CE01875490
:100F50009E4F27EE30E0FC0131832083CE01855483
:100F60009E4F27EE30E0FC0131832083CE01835475
:100F70009E4F26EE30E0FC0131832083CE01815468
:100F80009E4F25EE30E0FC0131832083CE018F534C
:100F90009E4F24EE30E0FC0131832083CE018D533F
:100FA0009E4F24EE30E0FC0131832083CE018B5331
:100FB0009E4F23EE30E0FC0131832083CE01895324
:100FC0009E4F22EE30E0FC0131832083CE01875317
:100FD0009E4F21EE30E0FC0131832083CE0185530A
:100FE0009E4F20EE30E0FC0131832083CE018353FD
:100FF0009E4F20EE30E0FC0131832083CE018153EF
:101000009E4F2FED30E0FC0131832083CE018F52C3
:101010009E4F2EED30E0FC0131832083CE018D52B6
:101020009E4F2DED30E0FC0131832083CE018B52A9
:101030009E4F2CED30E0FC0131832083CE0189529C
:101040009E4F2BED30E0FC0131832083CE0187528F
:101050009E4F2AED30E0FC0131832083CE01855282
:101060009E4F29ED30E0FC0131832083CE01835275
:101070009E4F29ED30E0FC0131832083CE01815267
:101080009E4F28ED30E0FC0131832083CE018F514B
:101090009E4F27ED30E0FC0131832083CE018D513E
:1010A0009E4F26ED30E0FC0131832083CE018B5131
:1010B0009E4F25ED30E0FC0131832083CE01895124
:1010C0009E4F24ED30E0FC0131832083CE01875117
:1010D0009E4F23ED30E0FC0131832083CE0185510A
:1010E0009E4F22ED30E0FC0131832083CE018351FD
:1010F0009E4F21ED30E0FC0131832083CE018151F0
:101100009E4F20ED30E0FC0131832083CE018F50D3
:101110009E4F2FEC30E0FC0131832083CE018D50B7
:101120009E4F2EEC30E0FC0131832083CE018B50AA
:101130009E4F2DEC30E0FC0131832083CE0189509D
:101140009E4F2CEC30E0FC0131832083CE01875090
:101150009E4F2BEC30E0FC0131832083CE01855083
:101160009E4F2AEC30E0FC0131832083CE01835076
:101170009E4F29EC30E0FC0131832083CE01815069
:101180009E4F28EC30E0FC0131832083CE018F5F3D
:101190009D4F27EC30E0FC0131832083CE018D5F31
:1011A0009D4F26EC30E0FC0131832083CE018B5F24
:1011B0009D4F25EC30E0FC0131832083CE01895F17
:1011C0009D4F24EC30E0FC0131832083CE01875F0A
:1011D0009D4F23EC30E0FC0131832083CE01855FFD
:1011E0009D4F21EC30E0FC0131832083CE01835FF1
:1011F0009D4F20EC30E0FC0131832083CE01815FE4
:101200009D4F2FEB30E0FC0131832083CE018F5EB8
:101210009D4F2EEB30E0FC0131832083CE018D5EAB
:101220009D4F2DEB30E0FC0131832083CE018B5E9E
:101230009D4F2CEB30E0FC0131832083CE01895E91
:101240009D4F2BEB30E0FC0131832083CE01875E84
:101250009D4F2AEB30E0FC0131832083CE01855E77
:101260009D4F29EB30E0FC0131832083CE01835E6A
:101270009D4F27EB30E0FC0131832083CE01815E5E
:101280009D4F26EB30E0FC0131832083CE018F5D42
:101290009D4F25EB30E0FC0131832083CE018D5D35
:1012A0009D4F24EB30E0FC0131832083CE018B5D28
:1012B0009D4F23EB30E0FC0131832083CE01895D1B
:1012C0009D4F22EB30E0FC0131832083CE01875D0E
:1012D0009D4F20EB30E0FC0131832083CE01855D02
:1012E0009D4F2FEA30E0FC0131832083CE01835DE6
:1012F0009D4F2EEA30E0FC0131832083CE01815DD9
:101300009D4F2DEA30E0FC0131832083CE018F5CBC
:101310009D4F2CEA30E0FC0131832083CE018D5CAF
:101320009D4F2BEA30E0FC0131832083CE018B5CA2
:101330009D4F29EA30E0FC0131832083CE01895C96
:101340009D4F28EA30E0FC0131832083CE01875C89
:101350009D4F27EA30E0FC0131832083CE01855C7C
:101360009D4F26EA30E0FC0131832083CE01835C6F
:101370009D4F25EA30E0FC0131832083CE01815C62
:101380009D4F23EA30E0FC0131832083CE018F5B47
:101390009D4F22EA30E0FC0131832083CE018D5B3A
:1013A0009D4F21EA30E0FC0131832083CE018B5B2D
:1013B0009D4F20EA30E0FC0131832083CE01895B20
:1013C0009D4F2EE930E0FC0131832083CE01875B05
:1013D0009D4F2DE930E0FC0131832083CE01855BF8
:1013E0009D4F2CE930E0FC0131832083CE01835BEB
:1013F0009D4F2BE930E0FC0131832083CE01815BDE
:101400009D4F29E930E0FC0131832083CE018F5AC2
:101410009D4F28E930E0FC0131832083CE018D5AB5
:101420009D4F27E930E0FC0131832083CE018B5AA8
:101430009D4F26E930E0FC0131832083CE01895A9B
:101440009D4F24E930E0FC0131832083CE01875A8F
:101450009D4F23E930E0FC0131832083CE01855A82
:101460009D4F22E930E0FC0131832083CE01835A75
:101470009D4F21E930E0FC0131832083CE01815A68
:101480009D4F2FE830E0FC0131832083CE018F593E
:101490009D4F2EE830E0FC0131832083CE018D5931
:1014A0009D4F2DE830E0FC0131832083CE018B5924
:1014B0009D4F2CE830E0FC0131832083CE01895917
:1014C0009D4F2AE830E0FC0131832083CE0187590B
:1014D0009D4F29E830E0FC0131832083CE018559FE
:1014E0009D4F28E830E0FC0131832083CE018359F1
:1014F0009D4F27E830E0FC0131832083CE018159E4
:101500009D4F25E830E0FC0131832083CE018F58C8
:101510009D4F24E830E0FC0131832083CE018D58BB
:101520009D4F23E830E0FC0131832083CE018B58AE
:101530009D4F21E830E0FC0131832083CE018958A2
:101540009D4F20E830E0FC0131832083CE01875895
:101550009D4F2FE730E0FC0131832083CE01855879
:101560009D4F2EE730E0FC0131832083CE0183586C
:101570009D4F2CE730E0FC0131832083CE01815860
:101580009D4F2BE730E0FC0131832083CE018F5744
:101590009D4F2AE730E0FC0131832083CE018D5737
:1015A0009D4F29E730E0FC0131832083CE018B572A
:1015B0009D4F27E730E0FC0131832083CE0189571E
:1015C0009D4F26E730E0FC0131832083CE01875711
:1015D0009D4F25E730E0FC0131832083CE01855704
:1015E0009D4F24E730E0FC0131832083CE018357F7
:1015F0009D4F22E730E0FC0131832083CE018157EB
:101600009D4F21E730E0FC0131832083CE018F56CE
:101610009D4F20E730E0FC0131832083CE018D56C1
:101620009D4F2EE630E0FC0131832083CE018B56A6
:101630009D4F2DE630E0FC0131832083CE01895699
:101640009D4F2CE630E0FC0131832083CE0187568C
:101650009D4F2BE630E0FC0131832083CE0185567F
:101660009D4F29E630E0FC0131832083CE01835673
:101670009D4F28E630E0FC0131832083CE01815666
:101680009D4F27E630E0FC0131832083CE018F554A
:101690009D4F26E630E0FC0131832083CE018D553D
:1016A0009D4F24E630E0FC0131832083CE018B5531
:1016B0009D4F23E630E0FC0131832083CE01895524
:1016C0009D4F22E630E0FC0131832083CE01875517
:1016D0009D4F21E630E0FC0131832083CE0185550A
:1016E0009D4F20E630E0FC0131832083CE018355FD
:1016F0009D4F2EE530E0FC0131832083CE018155E2
:101700009D4F2DE530E0FC0131832083CE018F54C5
:101710009D4F2CE530E0FC0131832083CE018D54B8
:101720009D4F2BE530E0FC0131832083CE018B54AB
:101730009D4F29E530E0FC0131832083CE0189549F
:101740009D4F28E530E0FC0131832083CE01875492
:101750009D4F27E530E0FC0131832083CE01855485
:101760009D4F26E530E0FC0131832083CE01835478
:101770009D4F25E530E0FC0131832083CE0181546B
:101780009D4F23E530E0FC0131832083CE018F5350
:101790009D4F22E530E0FC0131832083CE018D5343
:1017A0009D4F21E530E0FC0131832083CE018B5336
:1017B0009D4F20E530E0FC0131832083CE01895329
:1017C0009D4F2FE430E0FC0131832083CE0187530D
:1017D0009D4F2EE430E0FC0131832083CE01855300
:1017E0009D4F2CE430E0FC0131832083CE018353F4
:1017F0009D4F2BE430E0FC0131832083CE018153E7
:101800009D4F2AE430E0FC0131832083CE018F52CA
:101810009D4F29E430E0FC0131832083CE018D52BD
:101820009D4F28E430E0FC0131832083CE018B52B0
:101830009D4F27E430E0FC0131832083CE018952A3
:101840009D4F26E430E0FC0131832083CE01875296
:101850009D4F24E430E0FC0131832083CE0185528A
:101860009D4F23E430E0FC0131832083CE0183527D
:101870009D4F22E430E0FC0131832083CE01815270
:101880009D4F21E430E0FC0131832083CE018F5154
:101890009D4F20E430E0FC0131832083CE018D5147
:1018A0009D4F2FE330E0FC0131832083CE018B512B
:1018B0009D4F2EE330E0FC0131832083CE0189511E
:1018C0009D4F2DE330E0FC0131832083CE01875111
:1018D0009D4F2CE330E0FC0131832083CE01855104
:1018E0009D4F2BE330E0FC0131832083CE018351F7
:1018F0009D4F2AE330E0FC0131832083CE018151EA
:101900009D4F28E330E0FC0131832083CE018F50CE
:101910009D4F27E330E0FC0131832083CE018D50C1
:101920009D4F26E330E0FC0131832083CE018B50B4
:101930009D4F25E330E0FC0131832083CE018950A7
:101940009D4F24E330E0FC0131832083CE0187509A
:101950009D4F23E330E0FC0131832083CE0185508D
:101960009D4F22E330E0FC0131832083CE01835080
:101970009D4F21E330E0FC0131832083CE01815073
:101980009D4F20E330E0FC0131832083CE018F5F47
:101990009C4F2FE230E0FC0131832083CE018D5F2C
:1019A0009C4F2EE230E0FC0131832083CE018B5F1F
:1019B0009C4F2DE230E0FC0131832083CE01895F12
:1019C0009C4F2CE230E0FC0131832083CE01875F05
:1019D0009C4F2BE230E0FC0131832083CE01855FF8
:1019E0009C4F2BE230E0FC0131832083CE01835FEA
:1019F0009C4F2AE230E0FC0131832083CE01815FDD
:101A00009C4F29E230E0FC0131832083CE018F5EC0
:101A10009C4F28E230E0FC0131832083CE018D5EB3
:101A20009C4F27E230E0FC0131832083CE018B5EA6
:101A30009C4F26E230E0FC0131832083CE01895E99
:101A40009C4F25E230E0FC0131832083CE01875E8C
:101A50009C4F24E230E0FC0131832083CE01855E7F
:101A60009C4F23E230E0FC0131832083CE01835E72
:101A70009C4F22E230E0FC0131832083CE01815E65
:101A80009C4F22E230E0FC0131832083CE018F5D48
:101A90009C4F21E230E0FC0131832083CE018D5D3B
:101AA0009C4F20E230E0FC0131832083CE018B5D2E
:101AB0009C4F2FE130E0FC0131832083CE01895D12
:101AC0009C4F2EE130E0FC0131832083CE01875D05
:101AD0009C4F2DE130E0FC0131832083CE01855DF8
:101AE0009C4F2DE130E0FC0131832083CE01835DEA
:101AF0009C4F2CE130E0FC0131832083CE01815DDD
:101B00009C4F2BE130E0FC0131832083CE018F5CC0
:101B10009C4F2AE130E0FC0131832083CE018D5CB3
:101B20009C4F2AE130E0FC0131832083CE018B5CA5
:101B30009C4F29E130E0FC0131832083CE01895C98
:101B40009C4F28E130E0FC0131832083CE01875C8B
:101B50009C4F27E130E0FC0131832083CE01855C7E
:101B60009C4F27E130E0FC0131832083CE01835C70
:101B70009C4F26E130E0FC0131832083CE01815C63
:101B80009C4F25E130E0FC0131832083CE018F5B47
:101B90009C4F25E130E0FC0131832083CE018D5B39
:101BA0009C4F24E130E0FC0131832083CE018B5B2C
:101BB0009C4F23E130E0FC0131832083CE01895B1F
:101BC0009C4F23E130E0FC0131832083CE01875B11
:101BD0009C4F22E130E0FC0131832083CE01855B04
:101BE0009C4F21E130E0FC0131832083CE01835BF7
:101BF0009C4F21E130E0FC0131832083CE01815BE9
:101C00009C4F20E130E0FC0131832083CE018F5ACC
:101C10009C4F2FE030E0FC0131832083CE018D5AB0
:101C20009C4F2FE030E0FC0131832083CE018B5AA2
:101C30009C4F2EE030E0FC0131832083CE01895A95
:101C40009C4F2EE030E0FC0131832083CE01875A87
:101C50009C4F2DE030E0FC0131832083CE01855A7A
:101C60009C4F2DE030E0FC0131832083CE01835A6C
:101C70009C4F2CE030E0FC0131832083CE01815A5F
:101C80009C4F2CE030E0FC0131832083CE018F5942
:101C90009C4F2BE030E0FC0131832083CE018D5935
:101CA0009C4F2BE030E0FC0131832083CE018B5927
:101CB0009C4F2AE030E0FC0131832083CE0189591A
:101CC0009C4F2AE030E0FC0131832083CE0187590C
:101CD0009C4F29E030E0FC0131832083CE018559FF
:101CE0009C4F29E030E0FC0131832083CE018359F1
:101CF0009C4F28E030E0FC0131832083CE018159E4
:101D00009C4F28E030E0FC0131832083CE018F58C6
:101D10009C4F28E030E0FC0131832083CE018D58B8
:101D20009C4F27E030E0FC0131832083CE018B58AB
:101D30009C4F27E030E0FC0131832083CE0189589D
:101D40009C4F26E030E0FC0131832083CE01875890
:101D50009C4F26E030E0FC0131832083CE01855882
:101D60009C4F26E030E0FC0131832083CE01835874
:101D70009C4F25E030E0FC0131832083CE01815867
:101D80009C4F25E030E0FC0131832083CE018F574A
:101D90009C4F25E030E0FC0131832083CE018D573C
:101DA0009C4F24E030E0FC0131832083CE018B572F
:101DB0009C4F24E030E0FC0131832083CE01895721
:101DC0009C4F24E030E0FC0131832083CE01875713
:101DD0009C4F24E030E0FC0131832083CE01855705
:101DE0009C4F23E030E0FC0131832083CE018357F8
:101DF0009C4F23E030E0FC0131832083CE018157EA
:101E00009C4F23E030E0FC0131832083CE018F56CC
:101E10009C4F23E030E0FC0131832083CE018D56BE
:101E20009C4F22E030E0FC0131832083CE018B56B1
:101E30009C4F22E030E0FC0131832083CE018956A3
:101E40009C4F22E030E0FC0131832083CE01875695
:101E50009C4F22E030E0FC0131832083CE01855687
:101E60009C4F22E030E0FC0131832083CE01835679
:101E70009C4F22E030E0FC0131832083CE0181566B
:101E80009C4F22E030E0FC0131832083CE018F554E
:101E90009C4F21E030E0FC0131832083CE018D5541
:101EA0009C4F21E030E0FC0131832083CE018B5533
:101EB0009C4F21E030E0FC0131832083CE01895525
:101EC0009C4F21E030E0FC0131832083CE01875517
:101ED0009C4F21E030E0FC0131832083CE01855509
:101EE0009C4F21E030E0FC0131832083CE018355FB
:101EF0009C4F21E030E0FC0131832083CE018155ED
:101F00009C4F21E030E0FC0131832083CE018F54CF
:101F10009C4F21E030E0FC0131832083CE018D54C1
:101F20009C4F21E030E0FC0131832083CE018B54B3
:101F30009C4F21E030E0FC0131832083CE018954A5
:101F40009C4F21E030E0FC0131832083CE01875497
:101F50009C4F21E030E0FC0131832083CE01855489
:101F60009C4F21E030E0FC0131832083CE0183547B
:101F70009C4F21E030E0FC0131832083CE0181546D
:101F80009C4F21E030E0FC0131832083CE018F5350
:101F90009C4F21E030E0FC0131832083CE018D5342
:101FA0009C4F21E030E0FC0131832083CE018B5334
:101FB0009C4F22E030E0FC0131832083CE01895325
:101FC0009C4F22E030E0FC0131832083CE01875317
:101FD0009C4F22E030E0FC0131832083CE01855309
:101FE0009C4F22E030E0FC0131832083CE018353FB
:101FF0009C4F22E030E0FC0131832083CE018153ED
:102000009C4F22E030E0FC0131832083CE018F52CF
:102010009C4F23E030E0FC0131832083CE018D52C0
:102020009C4F23E030E0FC0131832083CE018B52B2
:102030009C4F23E030E0FC0131832083CE018952A4
:102040009C4F23E030E0FC0131832083CE01875296
:102050009C4F23E030E0FC0131832083CE01855288
:102060009C4F24E030E0FC0131832083CE01835279
:102070009C4F24E030E0FC0131832083CE0181526B
:102080009C4F24E030E0FC0131832083CE018F514E
:102090009C4F25E030E0FC0131832083CE018D513F
:1020A0009C4F25E030E0FC0131832083CE018B5131
:1020B0009C4F25E030E0FC0131832083CE01895123
:1020C0009C4F26E030E0FC0131832083CE01875114
:1020D0009C4F26E030E0FC0131832083CE01855106
:1020E0009C4F26E030E0FC0131832083CE018351F8
:1020F0009C4F27E030E0FC0131832083CE018151E9
:102100009C4F27E030E0FC0131832083CE018F50CB
:102110009C4F27E030E0FC0131832083CE018D50BD
:102120009C4F28E030E0FC0131832083CE018B50AE
:102130009C4F28E030E0FC0131832083CE018950A0
:102140009C4F29E030E0FC0131832083CE01875091
:102150009C4F29E030E0FC0131832083CE01855083
:102160009C4F29E030E0FC0131832083CE01835075
:102170009C4F2AE030E0FC0131832083CE01815066
:102180009C4F2AE030E0FC0131832083CE018F5F39
:102190009B4F2BE030E0FC0131832083CE018D5F2B
:1021A0009B4F2BE030E0FC0131832083CE018B5F1D
:1021B0009B4F2CE030E0FC0131832083CE01895F0E
:1021C0009B4F2CE030E0FC0131832083CE01875F00
:1021D0009B4F2DE030E0FC0131832083CE01855FF1
:1021E0009B4F2EE030E0FC0131832083CE01835FE2
:1021F0009B4F2EE030E0FC0131832083CE01815FD4
:102200009B4F2FE030E0FC0131832083CE018F5EB5
:102210009B4F2FE030E0FC0131832083CE018D5EA7
:102220009B4F20E130E0FC0131832083CE018B5EA7
:102230009B4F20E130E0FC0131832083CE01895E99
:102240009B4F21E130E0FC0131832083CE01875E8A
:102250009B4F22E130E0FC0131832083CE01855E7B
:102260009B4F22E130E0FC0131832083CE01835E6D
:102270009B4F23E130E0FC0131832083CE01815E5E
:102280009B4F24E130E0FC0131832083CE018F5D40
:102290009B4F24E130E0FC0131832083CE018D5D32
:1022A0009B4F25E130E0FC0131832083CE018B5D23
:1022B0009B4F26E130E0FC0131832083CE01895D14
:1022C0009B4F26E130E0FC0131832083CE01875D06
:1022D0009B4F27E130E0FC0131832083CE01855DF7
:1022E0009B4F28E130E0FC0131832083CE01835DE8
:1022F0009B4F28E130E0FC0131832083CE01815DDA
:102300009B4F29E130E0FC0131832083CE018F5CBB
:102310009B4F2AE130E0FC0131832083CE018D5CAC
:102320009B4F2BE130E0FC0131832083CE018B5C9D
:102330009B4F2BE130E0FC0131832083CE01895C8F
:102340009B4F2CE130E0FC0131832083CE01875C80
:102350009B4F2DE130E0FC0131832083CE01855C71
:102360009B4F2EE130E0FC0131832083CE01835C62
:102370009B4F2FE130E0FC0131832083CE01815C53
:102380009B4F2FE130E0FC0131832083CE018F5B36
:102390009B4F20E230E0FC0131832083CE018D5B36
:1023A0009B4F21E230E0FC0131832083CE018B5B27
:1023B0009B4F22E230E0FC0131832083CE01895B18
:1023C0009B4F23E230E0FC0131832083CE01875B09
:1023D0009B4F24E230E0FC0131832083CE01855BFA
:1023E0009B4F25E230E0FC0131832083CE01835BEB
:1023F0009B4F26E230E0FC0131832083CE01815BDC
:102400009B4F26E230E0FC0131832083CE018F5ABE
:102410009B4F27E230E0FC0131832083CE018D5AAF
:102420009B4F28E230E0FC0131832083CE018B5AA0
:102430009B4F29E230E0FC0131832083CE01895A91
:102440009B4F2AE230E0FC0131832083CE01875A82
:102450009B4F2BE230E0FC0131832083CE01855A73
:102460009B4F2CE230E0FC0131832083CE01835A64
:102470009B4F2DE230E0FC0131832083CE01815A55
:102480009B4F2EE230E0FC0131832083CE018F5937
:102490009B4F2FE230E0FC0131832083CE018D5928
:1024A0009B4F20E330E0FC0131832083CE018B5928
:1024B0009B4F21E330E0FC0131832083CE01895919
:1024C0009B4F22E330E0FC0131832083CE0187590A
:1024D0009B4F23E330E0FC0131832083CE018559FB
:1024E0009B4F24E330E0FC0131832083CE018359EC
:1024F0009B4F25E330E0FC0131832083CE018159DD
:102500009B4F26E330E0FC0131832083CE018F58BE
:102510009B4F27E330E0FC0131832083CE018D58AF
:102520009B4F28E330E0FC0131832083CE018B58A0
:102530009B4F29E330E0FC0131832083CE01895891
:102540009B4F2AE330E0FC0131832083CE01875882
:102550009B4F2BE330E0FC0131832083CE01855873
:102560009B4F2CE330E0FC0131832083CE01835864
:102570009B4F2DE330E0FC0131832083CE01815855
:102580009B4F2EE330E0FC0131832083CE018F5737
:102590009B4F2FE330E0FC0131832083CE018D5728
:1025A0009B4F21E430E0FC0131832083CE018B5727
:1025B0009B4F22E430E0FC0131832083CE01895718
:1025C0009B4F23E430E0FC0131832083CE01875709
:1025D0009B4F24E430E0FC0131832083CE018557FA
:1025E0009B4F25E430E0FC0131832083CE018357EB
:1025F0009B4F26E430E0FC0131832083CE018157DC
:102600009B4F27E430E0FC0131832083CE018F56BD
:102610009B4F28E430E0FC0131832083CE018D56AE
:102620009B4F2AE430E0FC0131832083CE018B569E
:102630009B4F2BE430E0FC0131832083CE0189568F
:102640009B4F2CE430E0FC0131832083CE01875680
:102650009B4F2DE430E0FC0131832083CE01855671
:102660009B4F2EE430E0FC0131832083CE01835662
:102670009B4F2FE430E0FC0131832083CE01815653
:102680009B4F21E530E0FC0131832083CE018F5543
:102690009B4F22E530E0FC0131832083CE018D5534
:1026A0009B4F23E530E0FC0131832083CE018B5525
:1026B0009B4F24E530E0FC0131832083CE01895516
:1026C0009B4F25E530E0FC0131832083CE01875507
:1026D0009B4F26E530E0FC0131832083CE018555F8
:1026E0009B4F28E530E0FC0131832083CE018355E8
:1026F0009B4F29E530E0FC0131832083CE018155D9
:102700009B4F2AE530E0FC0131832083CE018F54BA
:102710009B4F2BE530E0FC0131832083CE018D54AB
:102720009B4F2DE530E0FC0131832083CE018B549B
:102730009B4F2EE530E0FC0131832083CE0189548C
:102740009B4F2FE530E0FC0131832083CE0187547D
:102750009B4F20E630E0FC0131832083CE0185547D
:102760009B4F21E630E0FC0131832083CE0183546E
:102770009B4F23E630E0FC0131832083CE0181545E
:102780009B4F24E630E0FC0131832083CE018F5340
:102790009B4F25E630E0FC0131832083CE018D5331
:1027A0009B4F26E630E0FC0131832083CE018B5322
:1027B0009B4F28E630E0FC0131832083CE01895312
:1027C0009B4F29E630E0FC0131832083CE01875303
:1027D0009B4F2AE630E0FC0131832083CE018553F4
:1027E0009B4F2BE630E0FC0131832083CE018353E5
:1027F0009B4F2DE630E0FC0131832083CE018153D5
:102800009B4F2EE630E0FC0131832083CE018F52B6
:102810009B4F2FE630E0FC0131832083CE018D52A7
:102820009B4F20E730E0FC0131832083CE018B52A7
:102830009B4F22E730E0FC0131832083CE01895297
:102840009B4F23E730E0FC0131832083CE01875288
:102850009B4F24E730E0FC0131832083CE01855279
:102860009B4F25E730E0FC0131832083CE0183526A
:102870009B4F27E730E0FC0131832083CE0181525A
:102880009B4F28E730E0FC0131832083CE018F513C
:102890009B4F29E730E0FC0131832083CE018D512D
:1028A0009B4F2BE730E0FC0131832083CE018B511D
:1028B0009B4F2CE730E0FC0131832083CE0189510E
:1028C0009B4F2DE730E0FC0131832083CE018751FF
:1028D0009B4F2EE730E0FC0131832083CE018551F0
:1028E0009B4F20E830E0FC013183208383E290E0BD
:1028F000FC018081882F90E084709927009739F13E
:1029000085E290E025E230E0F90120812062FC01BF
:1029100020838FEF9FEF9A83898360E177E280E0E5
:1029200090E00E94400007E410E089819A810E94B3
:10293000B114880F991F9E012F5F3F4F820F931F85
:102940000296FC0180819181F8018083E6CF85E2C7
:1029500090E025E230E0F90120812F7DFC01208309
:10296000C5CFCF93DF9300D0CDB7DEB79A838983ED
:1029700089819A818F3F910519F41A82198205C0C5
:1029800089819A8101969A83898389819A810F909E
:102990000F90DF91CF910895052E97FB1EF40094C0
:1029A0000E94E31457FD07D00E94FA1407FC03D0DD
:1029B0004EF40C94E31450954095309521953F4F7B
:1029C0004F4F5F4F089590958095709561957F4F1B
:1029D0008F4F9F4F0895A29FB001B39FC001A39F47
:1029E000700D811D1124911DB29F700D811D112448
:1029F000911D0895A1E21A2EAA1BBB1BFD010DC05B
:102A0000AA1FBB1FEE1FFF1FA217B307E407F5079E
:102A100020F0A21BB30BE40BF50B661F771F881F7A
:102A2000991F1A9469F760957095809590959B0110
:0C2A3000AC01BD01CF010895F894FFCF68
:00000001FF
